:020000040800F2
:10000000600B002005010008511C0008391600088B
:1000100035190008150E00082B35000800000000F7
:100020000000000000000000000000002929000876
:100030006110000800000000D9270008B52B000857
:100040001F0100081F0100081F0100081F01000810
:100050001F0100081F0100081F0100081F01000800
:100060001F0100081F010008811200081F0100087D
:100070001F0100081F0100081F0100081F010008E0
:100080001F0100081F0100081F0100081F010008D0
:100090001F0100081F0100081F010008A912000825
:1000A0001F010008A92C00081F0100081F010008FB
:1000B000A52D00081F010008592E00081F01000887
:1000C0001F0100081F0100081F0100081F01000890
:1000D0001F010008F13100081F0100081F0100087E
:1000E000291200081F0100081F010008DFF810D0C6
:1000F00000F0D6FC00480047A53F0008AFF30080A1
:10010000600B00200648804706480047FEE7FEE7F0
:10011000FEE7FEE7FEE7FEE7FEE7FEE7FEE7FEE7B7
:10012000B92B0008ED000008D2B201E000F8012B65
:10013000491EFBD270470022F6E710B513460A4667
:1001400004461946FFF7F0FF204610BD30B50546BE
:100150002A460B4612F8010B13F8014B08B1A042D6
:10016000F8D01CB1002802D06D1CF1E7284630BD44
:10017000421C10F8011B0029FBD1801A70470000B7
:1001800070B50F4D00B92868002412E00A4602E05D
:100190009E4203D0521C1378002BF9D1DAB22243CD
:1001A00005D02BB124B1002100F8011B04E0044666
:1001B000401C0678002EE9D12860204670BD000062
:1001C000CC000020F0B480EA0102D40F4200B2EB70
:1001D000410F02D20246084611464A0042D0C30DE2
:1001E000DDB2C1F3C752AD1A202D35DAC1F31601C5
:1001F00041F4000204B15242C5F1200602FA06F1B0
:100200002A411044B3EBD05F23D0C4B1012DA0EB41
:10021000C35009DCF0BC4FF0004202EAC352DBB22B
:1002200000F5000000F059BB400000F1807000EBC9
:10023000C350A0F1807040EAD170490009E049083C
:1002400041EAC071A0EBC35000F50000400800EB8C
:10025000C350F0BC00F038BB6142012202EB410107
:10026000001BF6E7F0BC704781F00041AAE780F080
:100270000040A7E780EA010210B502F00043400009
:1002800022D04A001FD0010E01EB1261C0F35600CC
:10029000C2F3560240F4000042F40002A0FB022028
:1002A00000047F39140400D0401C50EA124001D4ED
:1002B0004000491EC2B20C0604EBD010401C40089E
:1002C000802A02D003E0002010BD20F001000029A8
:1002D00000DA0020184310BD30B480EA010202F0B9
:1002E000004530F0004221F0004013D090B1C30D22
:1002F000D40DC2F31601C0F31600E41A41F4000154
:1003000040F400027D34914201D3641C00E04900B6
:10031000002C02DA30BC002070474FF400000023AC
:10032000914201D3891A034340084FEA4101F7D1B2
:1003300051B1914202D14FF0004105E002D24FF09D
:10034000010101E06FF0010103EBC450284430BC0F
:1003500000F0BABA2DE9FE4F804681EA0300C00FD3
:100360000C46009021F0004123F00045B8EB02005C
:10037000A94105D24046214690461C460B460246FE
:1003800023F00040104347D0270DC7F30A00C3F302
:100390000A510290401A019040286BDAC3F313000F
:1003A00040F4801B0098924620B10023D2EB030A50
:1003B00063EB0B0B01985946C0F14002504600F028
:1003C00052FA06460D4650465946019A00F06AFA1E
:1003D00010EB08006141002487EA115284EAE773B8
:1003E0001A4340D0009A62B3019A012A4FEA075299
:1003F00015DC001B61EB02014FF0004202EA0752DC
:10040000CDE90042001C41F5801132462B4600F038
:10041000A1FA03B0BDE8F08F40462146F9E7001B82
:1004200061EB0201001C41F5801300185B412018AC
:10043000A2F5001747EB030140EAD570B6196D41EC
:1004400011E06D084FEA360645EAC0754FEA0752DB
:10045000001B61EB0201001C41F5801149084FEAC5
:1004600030000019514132462B4603B0BDE8F04F31
:1004700000F061BA0098012240000023D0EB020294
:1004800063EBE073009821464FEAE074B8EB00009C
:1004900061EB0401E9E783F000435BE781F0004191
:1004A00058E72DE9FE4F81EA030404F0004421F0EF
:1004B000004100944FF0000B23F0004350EA010488
:1004C0005ED052EA03045BD0C3F30A54C1F30A5569
:1004D0002C44A4F2F3340194A0FB0254C1F31301A1
:1004E00041F48011C3F3130343F4801301FB02446E
:1004F00000FB034E840A970A44EA815447EA835773
:10050000A4FB076802958D0A05FB07854FEA932C2B
:1005100004FB0C542705029D4FEA065847EA16379C
:10052000B5EB08056EEB070C870E920E47EA8117B4
:1005300042EA8312A7FB0201B6EB0B0164EB000455
:100540002B0D43EA0C335E1844EB1C50DA4651463F
:10055000E7FB0201C5F313044FEA0B3343EA1453DC
:100560004FEA0432019C43EA0603A4F10C0402940E
:10057000009CCDE900B400F0EDF903B0BDE8F08FC8
:1005800000200146F9E72DE9F04D81EA030404F06B
:10059000004B21F0004514464FF0000A23F00041C3
:1005A00050EA050220D054EA01021DD0C5F30A57D3
:1005B0000246C5F31303C1F31300C1F30A5640F416
:1005C000801543F48013A7EB0608101BD64608F2EB
:1005D000FD3873EB050002D308F1010801E0921821
:1005E0005B41B8F1000F03DA00200146BDE8F08D51
:1005F00000204FF48011064684460EE0171B73EB73
:10060000050705D3121B63EB050306434CEA010CF7
:1006100049084FEA300092185B4150EA0107EDD1DA
:1006200052EA030012D082EA040083EA050108437B
:1006300005D0101BAB4106D20122002306E00022A8
:100640004FF0004302E06FF0010253101AEB060076
:100650004CEB085110EB0A0041EB0B01BDE8F04DEB
:1006600000F069B9C10F80EAE0700844CA07962318
:10067000002100F032B996230022114600F02DB976
:100680000EB540F2334102910021CDE900110A4636
:100690000B4600F05FF903B000BD00F0004220F00F
:1006A0000040C10DC0F3160040F400007F2901DABC
:1006B00000207047962903DCC1F19601C84001E093
:1006C00096398840002AF4D04042704720F000401C
:1006D000C10DC0F3160040F400007F2901DA0020AC
:1006E0007047962903DCC1F19601C84070479639DE
:1006F0008840704770B5C1F30A5201F000450024EC
:10070000C1F3130140F2FF3341F480119A4201DA40
:10071000002070BD40F233439A42A2F2334203DC20
:10072000524200F0AFF800E090402C43F1D040423C
:1007300070BDC1F30A5210B5C1F3130140F2FF338B
:1007400041F480119A4201DA002010BD40F2334397
:100750009A42A2F2334203DC524200F093F810BDF9
:10076000904010BD00F0004230F000400AD0C10DB2
:1007700001F56071C0F3160042EA0151C20840075A
:100780001143704700200146704701F0004330B428
:1007900021F0004150EA010206D00A0DA2F5607274
:1007A000C1F31301002A02DC30BC00207047440F63
:1007B00044EAC104C100E01830BC00EBC25000F0B4
:1007C00083B80000002801DBC0F10040002901DBF4
:1007D000C1F100418142704730B50B46014600200F
:1007E0002022012409E021FA02F59D4205D303FAF3
:1007F00002F5491B04FA02F52844151EA2F1010274
:10080000F1DC30BD2DE9F05F0546002092469B46A5
:1008100088460646814640241BE028464146474616
:10082000224600F02FF853465A46C01A914110D381
:1008300011461846224600F016F82D1A67EB0108FB
:100840004F4622460120002100F00DF817EB000969
:100850004E41201EA4F10104DFDC484631462A4601
:100860004346BDE8F09F202A04DB203A00FA02F15B
:10087000002070479140C2F1200320FA03F319438E
:1008800090407047202A04DB203A21FA02F0002130
:10089000704721FA02F3D040C2F120029140084390
:1008A00019467047202A06DBCB17203A41FA02F09E
:1008B00043EAE07306E041FA02F3D040C2F12002BD
:1008C00091400843194670470029A8BF7047401C53
:1008D000490008BF20F00100704710B4B0FA80FC56
:1008E00000FA0CF050EA010404BF10BC704749B193
:1008F000CCF1200421FA04F411FA0CF118BF012103
:1009000021430843A3EB0C01CB1D4FEA00614FEAE2
:10091000102042BF002010BC704700EBC3501044B1
:100920000029A4BF10BC7047401C490008BF20F03C
:10093000010010BC704710B5141E73F1000408DAF2
:10094000401C41F1000192185B411A4301D120F093
:10095000010010BD2DE9F04D92469B4611B1B1FA50
:1009600081F202E0B0FA80F220329046FFF77BFF7E
:1009700004460F4640EA0A0041EA0B0153465A4634
:10098000084313D0114653EA010019D0C8F14002C0
:100990005046FFF777FF05460E46504659464246F9
:1009A000FFF761FF084305D0012004E020463946E7
:1009B000BDE8F08D0020054346EAE0762C4337433E
:1009C0000A986305E40AA0EB08000022FD0A44EA45
:1009D00047540A3002D500200146E9E70105101905
:1009E0006941DDE9084500196941BDE8F04DA2E71C
:1009F00070B521F0004303430CD0C1F30A55002425
:100A0000D5EB040564EB0403D617AD1AB34102DB42
:100A10000020014670BD201841EB025170BD0EB59B
:100A2000C10F80EAE0700844CA07002140F2334356
:100A30008DE80E000A460B46FFF78CFF03B000BDA1
:100A4000C1F30A52C1F3130140F2FF3341F48011A4
:100A50009A4202DA00200146704740F233439A423C
:100A6000A2F2334202DC5242FFF70CBFFFF7FBBE9B
:100A700030B5041E71F1000404DB4FF00044404225
:100A800064EB0101141E73F1000405DB1C464FF0FA
:100A90000043524263EB0403994208BF904230BDC9
:100AA000064C074D06E0E06840F0010394E80700BB
:100AB00098471034AC42F6D3FFF71CFBD86D000802
:100AC000F86D00082DE9F04D00231A461B1A8A41E3
:100AD00003DB00200146BDE8F08DC1F30A52C1F3EB
:100AE000130141F480154FF0000BD10702D100181B
:100AF0006D41521E0027044640F2FF11384601EBBB
:100B0000620A3E468046024600204FF48011FFF7FD
:100B1000B9FEC2197141BB1846EB0100B4EB030CDE
:100B200075EB000C04D3E41A65EB000517460E467E
:100B3000241908F101006D4180463428E3DDF919DC
:100B400046EB0600091BA84103D24FF0FF321346C3
:100B500001E0002213461BEB070046EB0A51BDE8FB
:100B6000F04DFFF7E8BE21B1826842F001028260D9
:100B700003E0826822F001028260704721B182683E
:100B800042F48072826003E0826822F480728260A4
:100B90007047014600208A6802F004020AB1012071
:100BA00000E000207047014600208A6802F0080239
:100BB0000AB1012000E000207047000030B5024675
:100BC0000020002350680F4C20400D790C6844EA47
:100BD00005242043506090680B4C2040D1E902541A
:100BE0002C434D7944EA450420439060D06A20F4B8
:100BF00070000C7C641EE4B2234340EA0350D062D0
:100C000030BD0000FFFEF0FFFDF7F1FFF0B5044638
:100C10000D4600200021092D11DDE068A5F10A062E
:100C200006EB4607072606FA07F18843A5F10A06F0
:100C300006EB460603FA06F10843E0600CE0206983
:100C400005EB4507072606FA07F1884305EB45063D
:100C500003FA06F108432061072A0FDA606B561E7B
:100C600006EB86071F2606FA07F18843561E06EB99
:100C7000860605FA06F10843606322E00D2A0FDAC2
:100C8000206BD61F06EB86071F2606FA07F188435E
:100C9000D61F06EB860605FA06F10843206310E02E
:100CA000E06AA2F10D0606EB86071F2606FA07F199
:100CB0008843A2F10D0606EB860605FA06F1084305
:100CC000E062F0BD816841F008018160704721B1A8
:100CD000826842F4A002826003E0826822F4A002EB
:100CE00082607047816841F00401816070470000B4
:100CF00000B587B00121480201F09CFD01210420CC
:100D000001F098FD4FF4004001F068FD00208DF8DF
:100D10001B0003208DF81A000120ADF8180006A969
:100D2000254800F061FB0020019004904FF4602002
:100D3000039001208DF809008DF8080004208DF83B
:100D400014000523012200211C48FFF75FFF052343
:100D5000022201211948FFF759FF0523032202212E
:100D60001648FFF753FF0523042203211348FFF71A
:100D70004DFF01A91148FFF721FF01210F48FFF79F
:100D8000F2FE0E48FFF79EFF00BF0C48FFF70BFF77
:100D90000128FAD00948FFF7A5FF00BF0748FFF771
:100DA000F8FE0128FAD001210448FFF790FF00F077
:100DB00087F907B000BD0000000801400024014091
:100DC00010B52021014800F0A5FB10BD000801402E
:100DD00010B52021014800F09BFB10BD0008014028
:100DE00008B50121042001F025FD10208DF8030035
:100DF0002020ADF8000003208DF802006946044869
:100E000000F0F2FA2021024800F084FB08BD000047
:100E10000008014000BFFEE770B5002400253FE058
:100E2000002000F087F807E01F480078401C1E49AA
:100E30000870012000F02DF94FF480511B4800F09C
:100E40005EFB18B9184800786428EDDB00201649CD
:100E500008706006040E282000F01BF94FF4805142
:100E6000124800F04CFB012818D144F0010407E0BF
:100E70000D480078401C0C490870012000F009F969
:100E80004FF48051094800F03AFB012803D106488D
:100E900000786428ECDB002003490870681CC5B2A8
:100EA000082DBDDB204670BD9C00002000080140DD
:100EB0002DE9FC4105460E46174698460020009055
:100EC000019000F08BF800F053F8002405E0FFF7E4
:100ED000A3FF0DF80400601CC4B2052CF7DBC8208A
:100EE00000F0D7F89DF800009DF8011008449DF827
:100EF000021008449DF8031008449DF8041088422D
:100F00000DD19DF8000028709DF8010038709DF803
:100F1000020030709DF8030088F8000008E000200F
:100F200004E000210DF80010411CC8B20528F8DBD0
:100F3000BDE8FC8138B504464CB110208DF80300A3
:100F40000002ADF8000003208DF8020009E04820FF
:100F50008DF803004FF48050ADF8000003208DF8A9
:100F600002006946014800F03FFA38BD0008014020
:100F700010B50020FFF7DEFF07E016480078401CA0
:100F800014490870012000F084F84FF48051124891
:100F900000F0B5FA18B90F4800786428EDDB00209E
:100FA0000C49087007E00B480078401C094908709C
:100FB000012000F06EF84FF48051074800F09FFACE
:100FC000012803D1034800786428ECDB00200149A4
:100FD000087010BD9C0000200008014010B50120E1
:100FE000FFF7A8FF4FF48051074800F091FA122054
:100FF00000F037F84FF48051034800F08BFA2820B6
:1010000000F047F810BD00000008014021B102685F
:1010100042F00102026004E002684FF6FE731A40DB
:101020000260704710B50022026847F6F0739A43D9
:101030000C6A8B6823430C6923434C6923438C69F6
:101040002343CC6923434C6A23438C6A23431A43CA
:101050000260CB6843600B6883604B68C36010BD5F
:10106000704700B5034603E04FF47A7000F011F8C2
:10107000181EA3F10103F7D100BD10B5044603E02B
:101080004FF47A70FFF7EDFF201EA4F10104F7D1B1
:1010900010BD00EBC001C9004FF0E02251610021FA
:1010A00091610521116100BF4FF0E021096901F450
:1010B00080310029F8D004214FF0E02211617047FF
:1010C00000B58BB00121084601F094FB1248009056
:1010D0008015069000200490104801904FF4806025
:1010E00007908020059004200390002002900A9031
:1010F000202008900002099069460948FFF792FFF6
:10110000012105484C38FFF739FD01210448FFF75C
:101110007DFF0BB000BD00004C240140A200002068
:101120000800024010B54FF4FA711748FFF703F8B2
:1011300016A002F0FDF94FF4FA60FFF792FF4FF4AA
:10114000FA711148FEF7F7FF144803681448026863
:101150001448016814A002F0EBF94FF4FA60FFF7AD
:1011600080FF4FF4FA710848FEF7E5FF14A002F083
:10117000DFF94FF4FA60FFF774FF002217A1104661
:1011800000F034F810BD00006C05002041542B49DC
:101190004F545354415455530D0A00008000002011
:1011A000740000207C00002041542B494F544346DA
:1011B000473D25732C25732C25730D0A0000000074
:1011C00041542B494F545355423D57696E646F77D4
:1011D0005F5377697463680D0A00000057696E6495
:1011E0006F77537769746368000000002DE9FC4154
:1011F00004460D4690464046FFF7B4FA2A46CDE92C
:101200000001214602A002F093F9BDE8FC81000034
:1012100041542B494F5453454E443D25642C25736E
:101220002C252E31660D0A0010B54FF4805000F0C9
:101230005DF8012804D110490870000300F050F84F
:101240004FF4005000F052F8012814D1FFF7B8FD18
:101250000A480078012805D100200849087000F0EC
:10126000ABFA04E001200549087000F09DFA4FF444
:10127000005000F035F810BD210000202F000020A4
:1012800010B5102000F032F8012807D14FF07E5140
:1012900004480068FEF796FF02490860102000F03D
:1012A0001FF810BDC000002010B5202000F01EF86F
:1012B00001280ED12021074800F021F9012805D18D
:1012C00005480078012801D104490870202000F069
:1012D00007F810BD000C01402F000020BC000020CA
:1012E00001490860704700001404014001460020D5
:1012F0000022074B1B6803EA0102054B14331B68ED
:101300000B4013B10AB1012000E00020704700003B
:1013100000040140002123498279002A3AD00A467C
:10132000126803689A430B461A600A1D1268036824
:101330009A430B1D1A60027911440A6803681A4324
:101340000A60184A0832126803689A43154B08333A
:101350001A601A1D126803689A43124B0C331A6004
:101360004279102A0ED11A1F126803681A430D4BD6
:1013700008331A601A1D126803681A43094B0C33AC
:101380001A600DE00749427911440A6803681A435C
:101390000A6005E0027911440A6803689A430A600A
:1013A000704700000004014030B500228B071C0F7D
:1013B0000F2303FA04F20B4B8C1053F824309343A1
:1013C000084C8D1044F8253023468C1053F82430F7
:1013D0008C07240F00FA04F42343024C8D1044F8C8
:1013E000253030BD080001402DE9F04102460025BE
:1013F0000026002000230024002791F803C00CF0F1
:101400000F0591F803C00CF0100CBCF1000F03D0D5
:1014100091F802C04CEA050591F800C0BCF1000F3C
:1014200031D0146800202BE04FF0010C0CFA00F3CF
:10143000B1F800C00CEA03069E4220D183004FF0B1
:101440000F0C0CFA03F7BC4305FA03FC4CEA040446
:1014500091F803C0BCF1280F06D14FF0010C0CFA33
:1014600000FCC2F814C00AE091F803C0BCF1480FB8
:1014700005D14FF0010C0CFA00FCC2F810C0401C62
:101480000828D1D31460B1F800C0BCF1FF0F34DDDF
:10149000546800202EE000F1080C4FF0010808FA13
:1014A0000CF3B1F800C00CEA03069E4221D1830080
:1014B0004FF00F0C0CFA03F7BC4305FA03FC4CEA9F
:1014C000040491F803C0BCF1280F05D100F1080C09
:1014D00008FA0CF8C2F8148091F803C0BCF1480F68
:1014E00007D100F1080C4FF0010808FA0CF8C2F817
:1014F0001080401C0828CED35460BDE8F08102461D
:10150000002093680B400BB1012000E000207047E1
:1015100041617047016170471FB50121082001F04A
:1015200089F90121084601F085F948208DF80F005E
:101530004FF40050ADF80C0003208DF80E0003A905
:101540001448FFF751FF0D210120FFF72DFF4FF445
:101550000050019001208DF80A0000208DF808004D
:101560000C208DF8090001A8FFF7D4FE4FF480602D
:1015700000F0A8FB28208DF8000001208DF8030062
:1015800002208DF8010000208DF80200684600F06E
:1015900061FB1FBD000C01401CB520200090002005
:1015A0008DF806008DF8040008208DF805006846C7
:1015B000FFF7B0FE1CBD00001FB5FFF711FC0121B5
:1015C000082001F037F90121084601F033F92820FD
:1015D0008DF80F002020ADF80C0003208DF80E00D0
:1015E00003A91448FFF700FF05210120FFF7DCFEE7
:1015F0002020019001208DF80A0000208DF80800BD
:1016000008208DF8090001A8FFF784FE4FF48060E0
:1016100000F058FB17208DF8000001208DF8030022
:1016200003208DF8010000208DF80200684600F0CC
:1016300011FB1FBD000C014000BFFEE710B54FF4C9
:1016400000710C48FFF766FF4FF480710948FFF7FF
:1016500061FF00F041F84FF400710648FFF758FFB2
:1016600000F03AF84FF480710248FFF751FF00F0A4
:1016700033F810BD000C014010B54FF4007108485C
:10168000FFF746FF4FF480710548FFF743FF00F076
:1016900023F84FF400710248FFF73CFF10BD000033
:1016A000000C014010B54FF400710A48FFF732FFFB
:1016B00000F012F84FF480710648FFF72BFF00F09E
:1016C0000BF84FF480710348FFF722FF00F004F895
:1016D00010BD0000000C0140032000BF011EA0F15E
:1016E0000102D0B2FAD170471CB54FF4805000907F
:1016F00000208DF806008DF804000C208DF8050000
:101700006846FFF707FE1CBD1FB50121082001F048
:1017100091F80121084601F08DF848208DF80F005E
:101720004FF48050ADF80C0003208DF80E0003A993
:101730001448FFF759FE0C210120FFF735FE4FF446
:101740008050019001208DF80A0000208DF80800DB
:101750000C208DF8090001A8FFF7DCFD4FF4806034
:1017600000F0B0FA28208DF8000001208DF8030069
:1017700000208DF801008DF80200684600F06AFA3A
:101780001FBD0000000C014010B540210148FFF7CB
:10179000C1FE10BD0008014010B540210148FFF70F
:1017A000B7FE10BD0008014010B580210148FFF7C9
:1017B000B1FE10BD0008014010B580210148FFF7BF
:1017C000A7FE10BD0008014010B54FF4807102481B
:1017D000FFF7A0FE10BD00000008014010B54FF457
:1017E00080710248FFF794FE10BD00000008014020
:1017F00008B50121042001F01DF810208DF8030028
:101800004FF4E070ADF8000003208DF80200694647
:101810000848FFF7E9FD40210648FFF77BFE8021DD
:101820000448FFF777FE4FF480710248FFF772FE1D
:1018300008BD0000000801402DE9F34F87B08A463B
:1018400000F030F80590164801680598FEF744FD51
:10185000049000210498FEF7B5FF01D80020049001
:101860005046FEF77FFFCDE900010498FEF77AFFAE
:101870000646DDE9002302F0ADFE04460D4607985A
:10188000FEF770FF22462B46CDE90201FEF709FE66
:101890008046FEF77AFF8346584609B0BDE8F08FD0
:1018A000B80000202DE9F04100F020F806460D4870
:1018B00001680D480068FEF7DDFC07463146FEF77B
:1018C0000BFD0546074801682846FEF7CDFC044697
:1018D00000212046FEF776FF00D200242046BDE816
:1018E000F0810000B4000020B00000202DE9F0419C
:1018F000012004E00C49098806EB4106401C0A2837
:10190000F8DB0A2096FBF0F73846FEF7ABFE0546FB
:1019100006492846FEF7AEFC07460549FEF7DCFC03
:1019200004462046BDE8F081A20000200000A0404F
:1019300000F0FF4500BFFEE708B50121082000F0D8
:1019400079FF10208DF803000220ADF8000003207D
:101950008DF8020069460248FFF746FD08BD000009
:10196000000C014038B5FFF72BFAFFF715FE01F028
:1019700007F801F051F901F0CFF901F023FAFFF770
:10198000B3FE00F0A9F902214448FFF7C1FD0A2483
:1019900011E00120102342A200210090084600F02F
:1019A000A6FD00F09FFAA0B200F00CFF4FF4967075
:1019B000FFF757FB641C142CEBDD142410E001200E
:1019C000102337A200210090084600F090FD00F09F
:1019D00089FAA0B200F0F6FEA020FFF742FB641CDB
:1019E000282CECDD0120FFF748FB282410E0012023
:1019F00010232BA200210090084600F078FD00F093
:101A000071FAA0B200F0DEFEA020FFF72AFB641EF0
:101A1000142CECDA142410E00120102320A2002161
:101A20000090084600F063FD00F05CFAA0B200F000
:101A3000C9FEA020FFF715FB641E002CECDA00F0B5
:101A40004BF93220FFF70DFB00F0A4FF002219A193
:101A50001046FFF7CBFB012010231AA200210090B3
:101A6000084600F044FD00F03DFA4FF4FA70FFF72D
:101A7000F8FA4FF4FA711648FEF75DFB002015499D
:101A80000870FFF799FD01F0D1F801F04CF901F071
:101A9000A3F9FFF739FE00F01FF938BD000C014033
:101AA00057696E646F7720436C6F73696E672E2E73
:101AB0002E00000057696E646F775377697463680E
:101AC000000000005375636365737321000000001C
:101AD0006C0500203000002038B5FFF771F9FFF7E2
:101AE0005BFD00F04DFF01F097F801F015F901F0F2
:101AF00069F9FFF7F9FD00F0EFF802214548FFF71B
:101B000009FD5A2411E00120102343A20021009076
:101B1000084600F0ECFC00F0E5F9A0B200F052FE3F
:101B20004FF49670FFF79DFA641F502CEBDA5024A7
:101B300010E00120102338A200210090084600F098
:101B4000D6FC00F0CFF9A0B200F03CFEA020FFF7D9
:101B500088FA641E3C2CECDA0120FFF78EFA3C2454
:101B600010E0012010232CA200210090084600F074
:101B7000BEFC00F0B7F9A0B200F024FEA020FFF7F1
:101B800070FA641C502CECDD502410E0012010236E
:101B900021A200210090084600F0A9FC00F0A2F963
:101BA000A0B200F00FFEA020FFF75BFA641C642CCB
:101BB000ECDD00F091F800F0EDFE3220FFF751FA75
:101BC0004FF07E5219A10020FFF710FB01201023D7
:101BD0001AA200210090084600F089FC00F082F96A
:101BE0004FF4FA70FFF73DFA4FF4FA711648FEF71A
:101BF000A2FA012015490870FFF7DEFC01F016F883
:101C000001F091F801F0E8F8FFF77EFD00F064F8CC
:101C100038BD0000000C014057696E646F77204F9B
:101C200070696E696E672E2E2E00000057696E6413
:101C30006F775377697463680000000053756363BE
:101C400065737321000000006C0500203000002047
:101C50007047000070B5002100230F22C47804B340
:101C6000154C246804F4E064C4F5E064210AC1F171
:101C70000403CA40447804FA03F1847814402143F1
:101C800009010E4C0678A155047804F01F050124C3
:101C9000AC4005786D11AD0005F1E025C5F80041B7
:101CA00009E0047804F01F050124AC40044D0678D7
:101CB000761145F8264070BD0CED00E000E400E030
:101CC00080E100E002490143024A116070470000D0
:101CD0000000FA050CED00E070B500240CE00025D2
:101CE00006E00020074901EBC5010855681CC5B294
:101CF000802DF6DB601CC4B2082CF0DB00F0F2F89B
:101D000070BD0000EC0000200146002003E00A2224
:101D100091FBF2F1401C0029F9D17047F0B514464F
:101D20000B46CF1701EB5777C7F3C702CF1701EB6D
:101D30005777FF10A1EBC707FEB20123B340DDB216
:101D40004CB1134B03EBC0039B5C2B43104F07EBD1
:101D5000C007BB541AE00E4B03EBC0039B5CDB4394
:101D60000B4F07EBC007BB54094B03EBC0039B5C55
:101D70002B43074F07EBC007BB54054B03EBC003D6
:101D80009B5CDB43024F07EBC007BB54F0BD000078
:101D9000EC00002008B50121082000F04BFD4FF4B5
:101DA0004070ADF8000014208DF8030003208DF87A
:101DB000020069464448FFF717FB4FF44071424860
:101DC000FFF7A8FB4FF40070ADF8000010208DF86D
:101DD000030003208DF8020069463B48FFF704FB2F
:101DE0004FF400713848FFF795FBC820FFF739F929
:101DF0000021AE2000F080FC0021084600F07CFCB1
:101E00000021102000F078FC0021402000F074FC3C
:101E10000021812000F070FC0021CF2000F06CFC3C
:101E20000021A12000F068FC0021C82000F064FC23
:101E30000021A62000F060FC0021A82000F05CFC3E
:101E400000213F2000F058FC0021D32000F054FC7A
:101E50000021084600F050FC0021D52000F04CFC89
:101E60000021802000F048FC0021D92000F044FC33
:101E70000021F12000F040FC0021DA2000F03CFCC1
:101E80000021122000F038FC0021DB2000F034FC9F
:101E90000021302000F030FC0021202000F02CFC3C
:101EA0000021022000F028FC00218D2000F024FCFD
:101EB0000021142000F020FCFFF70EFF0021AF20CE
:101EC00000F01AFC08BD0000000C014010B50246ED
:101ED000012000E050430B1EA1F10104E1B2F9D151
:101EE00010BD000070B500242BE004F1B001C8B2B1
:101EF000002100F001FC0021084600F0FDFB00215C
:101F0000102000F0F9FBFFF799FB782000F00EFDA0
:101F1000FFF7C8FB402000F009FDFFF7C3FB0025D9
:101F200009E0094901EBC501085D00F0FFFCFFF77E
:101F3000B9FB681CC5B2802DF3DBFFF79DFB601C6D
:101F4000C4B2082CD1DB70BDEC0000202DE9FF4F9E
:101F500083B0824688461E464FF00009002740465F
:101F6000FEF706F9C0B202905FE032A13348FEF7F7
:101F7000EDF800B15AE067B91098009018F8092000
:101F800033465146802000F0E1F809F1010000F0ED
:101F9000FF090298814523D14FF0000B1AE001247C
:101FA00010E000250AE0264800EBC400415D601EF9
:101FB000234A02EBC0004155681CC5B2082DF2DB74
:101FC000601CC4B2902CECDBFFF78CFF0BF101001E
:101FD00000F0FF0B059870435845E0DC4FF0000916
:101FE000781CC7B2082E03D1062F07D1002705E0C1
:101FF00006EBD671B7EB610F00D10027012410E08A
:1020000000250AE00E4800EBC400415D601E0C4A4A
:1020100002EBC0004155681CC5B2082DF2DB601C04
:10202000C4B2902CECDBFFF75DFF9EE700BF07B06A
:10203000BDE8F08F32303233000000006C05002024
:10204000EC0000202DE9FF4F83B0824688461E46F3
:102050004FF0000900274046FEF78AF8C0B2029010
:1020600064E035A13748FEF771F828B14FF4FA71F2
:102070003448FEF760F85AE067B91098009018F8F5
:10208000092033465146802000F060F809F1010034
:1020900000F0FF090298814523D14FF0000B1AE0B0
:1020A000012410E000250AE0274800EBC400415D50
:1020B000601E254A02EBC0004155681CC5B2082DC0
:1020C000F2DB601CC4B2902CECDBFFF70BFF0BF1D2
:1020D000010000F0FF0B059870435845E0DC4FF01D
:1020E0000009781CC7B2082E03D1062F07D100279C
:1020F00005E006EBD671B7EB610F00D10027012494
:1021000010E000250AE0104800EBC400415D601EAD
:102110000D4A02EBC0004155681CC5B2082DF2DB28
:10212000601CC4B2902CECDBFFF7DCFE99E700BF2B
:1021300007B0BDE8F08F00005749464920474F548B
:10214000204950006C050020EC0000202DE9FE4FD6
:102150000746884692461C460197CDF80080082C19
:1021600002D14FF006091FE02046E31704EB53733A
:10217000DB1021464FEAE47C04EB5C7C4FEAEC0C7C
:10218000A4EBCC0CBCF1000F02D04FF0010C01E02D
:102190004FF0000C6344224604EBD27C4FEA6C0CF7
:1021A00003FB0CF303F0FF09AAF12000C6B20025DF
:1021B0005EE0082C07D106EB46002F4901EB4000FA
:1021C00010F805B01DE00C2C07D106EB46002B499A
:1021D00001EB800010F805B013E0102C05D1284861
:1021E00000EB061010F805B00BE0182C07D106EB39
:1021F000C600244901EB800010F805B001E0BDE8FD
:10220000FE8F002002901CE00BF0010028B1414637
:1022100038460C9AFFF782FD09E00C9808B90120B6
:1022200000E00020024641463846FFF777FD4FEABE
:102230006B0B08F1010000F0FF080298401CC0B2CF
:10224000029002980828DFDB781CC7B2082C0BD05C
:1022500004EBD4714A100199791A8A4204D1019F82
:1022600000980830C0B20090DDF80080681CC5B24C
:102270004D459EDB00BFC2E7F84F00082052000822
:1022800094560008845C00082DE9FC4F07468846F8
:1022900016461C46BB46CDF804802046E21704EBE8
:1022A0005272D2102146E31704EB5373DB10A4EBF8
:1022B000C3030BB1012300E000231A44624392B22E
:1022C0000092002555E0102C05D12C4800EB46105B
:1022D00010F805A01BE0182C07D106EBC600284912
:1022E00001EBC00010F805A011E0202C05D1254815
:1022F00000EBC61010F805A009E0402C05D12248DB
:1023000000EB462010F805A001E0BDE8FC8F4FF07F
:1023100000091CE00AF0010028B1414638460B9A3A
:10232000FFF7FCFC09E00B9808B9012000E0002051
:10233000024641463846FFF7F1FC4FEA6A0A08F1C7
:10234000010000F0FF0809F1010000F0FF09B9F1F8
:10235000080FDFDB781CC7B2A7EB0B00A04204D14B
:102360005F4601980830C0B20190DDF80480681C17
:1023700085B200988542A6DB00BFC6E7E069000889
:10238000606B0008806C0008816C00082DE9FF4F2D
:1023900082B0064691461F46DDE90F4A4FF0000B1A
:1023A000082C01D14FF0020B002530E0781B401EB5
:1023B000C1B20A20FFF78AFDB9FBF0F00A21B0FB99
:1023C000F1F201FB1208B8F1000F0ED104EBD47149
:1023D0000BEB610101FB0561C8B223463022CDE958
:1023E00000A40399FFF7B2FE0FE004EBD4710BEBEE
:1023F000610101FB0561C8B208F13001CAB2234690
:10240000CDE900A40399FFF7A1FE681CC5B2BD4247
:10241000CCDB06B0BDE8F08F2DE9FF4F05460E4638
:1024200017461C46DDF838904FF0000A0095B34679
:102430002046E21704EB5272D2102146E31704EB58
:102440005373DB10A4EBC3030BB1012300E00023A3
:102450001A44D4B24FF0000845E0002003903BE05E
:102460000D9810F80A0002900AF101001FFA80FA94
:10247000002001901DE0029800F0010028B14A46BA
:1024800031462846FFF74AFC0AE0B9F1000F01D1B6
:10249000012000E00020024631462846FFF73EFCBE
:1024A000029840100290701CC6B20198401CC0B245
:1024B000019001980828DEDB681CC5B20098281A34
:1024C000B84204D1009D0BF1080000F0FF0B5E46FE
:1024D0000398401CC0B203900398B842C0DB08F1D7
:1024E000010000F0FF08A045B7DBBDE8FF8F2DE934
:1024F000F84106460F4614461D46DDF81C8013E0E1
:10250000CDF8008022782B4639463046FFF71EFE74
:10251000082D02D1B01DC6B205E0284605EBD071EA
:1025200006EB6101CEB2641C2078202802DB207803
:102530007E28E5DDBDE8F8812DE9FF4F8BB005462B
:102540009146DDE918464FF0000800200A900990F6
:1025500083460890CDF820904846FEF79EF80A90F2
:102560000E98FEF78DF802460B46CDE900010020DB
:102570005F4902F02FF8CDE904010A98FEF772F8DE
:1025800000900899FDF773FE0190FEF7EBF8CDE996
:102590000201DDE90423FDF784FFCDE90601FEF722
:1025A000A9F809900A98FFF7AFFB8346082C01D1E0
:1025B0004FF00208BBF1000F64D0002732E0ABEB14
:1025C0000700401EC1B20A20FFF780FC0A99B1FB48
:1025D000F0F00A21B0FBF1F201FB120ABAF1000F90
:1025E0000ED104EBD47108EB610101FB0751C8B2B5
:1025F00023463022009607940C99FFF7A7FD0FE0C1
:1026000004EBD47108EB610101FB0751C8B20AF178
:102610003001CAB22346009607940C99FFF796FD45
:10262000781CC7B25F45CADB04EBD47108EB6101CB
:1026300001FB0751C8B223462E22009607940C993D
:10264000FFF784FDCDE9004604EBD47108EB61028D
:10265000791C02FB0151C8B207940E9B099A0C9990
:10266000FFF794FE04EBD47108EB6102B91C02FB86
:102670000151C8B223461FA2009607940C99FFF798
:1026800036FF31E023463022009628460C99FFF7AA
:102690005DFD04EBD47108EB61012944C8B2234607
:1026A0002E22009607940C99FFF750FDCDE90046C5
:1026B00004EBD47108EB610105EB4101C8B207944A
:1026C0000E9B099A0C99FFF761FE04EBD47108EB9D
:1026D000610101EB41012944C8B2234605A20096DD
:1026E00007940C99FFF703FF0FB0BDE8F08F0000CF
:1026F000000024402000000070B505460C46FEF79F
:102700009DFF782000F012F9FEF7CCFF1CB14020AD
:1027100000F00CF902E0002000F008F9FEF7C2FF1B
:10272000284600F003F9FEF7BDFFFEF7A5FF70BDD8
:1027300000B589B00121082000F07CF818208DF840
:1027400023000120ADF8200003208DF8220008A905
:102750001A48FEF749FE0121022000F05BF81848F4
:1027600000F0B8FB0020ADF81A00ADF816006320A9
:10277000ADF8180040F2CF20ADF8140000208DF81D
:102780001C0005A90E4800F007FC01A800F0F8FBAA
:102790006020ADF804000020ADF80E000120ADF877
:1027A00006000020ADF80A0001A9054800F098FBDA
:1027B0000121034800F068FB09B000BD000C014096
:1027C0000004004010B504462146024800F0E2FB38
:1027D00010BD0000000400407047000001460020CA
:1027E000034A506820F4404008435060704700009E
:1027F0000010024029B1064A52690243044B5A6153
:1028000004E0034A52698243014B5A617047000059
:102810000010024029B1064AD2690243044BDA6132
:1028200004E0034AD2698243014BDA617047000039
:102830000010024029B1064A92690243044B9A6192
:1028400004E0034A92698243014B9A617047000099
:102850000010024030B500210022002400232D4D3D
:102860006D6805F00C0121B1042905D0082923D198
:1028700005E0294D056022E0274D05601FE0254D4C
:102880006D6805F47012234D6D6805F480340225DF
:1028900005EB92421CB9214D554305600BE01D4DDF
:1028A0006D6805F400351DB11C4D5543056002E00F
:1028B000194D5543056002E0174D056000BF00BF8C
:1028C000144D6D6805F0F0010909154D6B5C056844
:1028D000DD4045600F4D6D6805F4E061090A104D5B
:1028E0006B5C4568DD4085600A4D6D6805F460519C
:1028F000C90A0B4D6B5C4568DD40C560054D6D68D0
:1029000005F44041890B074D6B5CC568B5FBF3F5D9
:10291000056130BD0010024000127A0000093D0040
:1029200000000020100000207047000070B5044631
:1029300000251FE004F0800028B14FF400710F481B
:10294000FEF7E8FD04E04FF400710C48FEF7E0FDEF
:10295000FEF7C2FE4FF480710848FEF7DBFDFEF77C
:10296000BBFE4FF480710548FEF7D2FD6006040EF1
:10297000681CC5B2082DDDDB70BD0000000C0140F5
:1029800010B5002240F22551014800F034FD10BD81
:102990000038014000B587B001218803FFF74AFFE6
:1029A00001210420FFF746FF18208DF81B004FF48B
:1029B0000070ADF8180003208DF81A0006A922480F
:1029C000FEF712FD48208DF81B004FF48060ADF833
:1029D000180003208DF81A0006A91B48FEF704FD15
:1029E0004FF4E13002900020ADF814000C20ADF857
:1029F00012000020ADF81000ADF80E00ADF80C008C
:102A000002A9124800F01CFD012240F225510F4896
:102A100000F0F1FC4FF48060FFF754F925208DF8A9
:102A2000040001208DF8070004208DF80500002027
:102A30008DF8060001A8FFF70DF90121034800F009
:102A400097FC07B000BD00000008014000380140BD
:102A500010B500F001F810BD0CB5002001900090F9
:102A60003348006840F480303149086000BF304886
:102A7000006800F4003000900198401C019000981C
:102A800018B90198B0F5A06FF1D12948006800F499
:102A9000003010B10120009001E00020009000986B
:102AA000012843D12348006840F010002149086004
:102AB0000846006820F0030008600846006840F0FF
:102AC000020008601A484068194948600846406892
:102AD00048600846406840F48060486008464068A6
:102AE00020F47C1048600846406840F4E8104860D4
:102AF0000846006840F08070086000BF0C4800681D
:102B000000F000700028F9D00948406820F0030068
:102B1000074948600846406840F00200486000BF2E
:102B20000348406800F00C000828F9D10CBD0000F3
:102B300000100240002002401FB501210420FFF7D1
:102B400079FE01210846FFF775FE48208DF80F0039
:102B50001020ADF80C0003208DF80E0003A91448D6
:102B6000FEF742FC04210020FEF71EFC102001901D
:102B700001208DF80A0000208DF808000C208DF847
:102B8000090001A8FEF7C6FB4FF48060FFF79AF832
:102B90000A208DF8000001208DF8030000208DF838
:102BA00001008DF802006846FFF754F81FBD0000D1
:102BB000000C01407047000010B51348006840F059
:102BC00001001149086008464068104908400E4954
:102BD0004860084600680E4908400B4908600846EE
:102BE000006820F4802008600846406820F4FE0059
:102BF00048604FF41F008860FFF72AFF4FF0006025
:102C00000449086010BD0000001002400000FFF8F9
:102C1000FFFFF6FE08ED00E010B50022012102489A
:102C200000F04FF910BD0000002C01401FB501213C
:102C3000C802FFF7FFFD1B4800F04CF90020ADF87B
:102C40000A00ADF8060044F61F60ADF8080040F237
:102C5000CF20ADF8040000208DF80C0001A9114828
:102C600000F09AF901210F4800F008F901221146FD
:102C70000C4800F026F94FF48060FFF723F8192084
:102C80008DF8000001208DF803008DF80100002070
:102C90008DF802006846FEF7DDFF0121014800F0D3
:102CA000F3F81FBD002C01402DE9F0470121124827
:102CB00000F0F6F8012819D1104911480068FDF715
:102CC0000BFB8246FDF74EFD06460E4A0E4BFDF706
:102CD000E8FB04460D4A0E4BFDF755FC8046FDF718
:102CE00054FD0C4908600020054908600121024894
:102CF00000F0C7F8BDE8F087002C01400000A041BB
:102D0000C00000207B14AE47E17AB43F9A999999AC
:102D10009999C93FC800002010B5002201218807F9
:102D200000F0CFF810BD1FB501210846FFF772FD76
:102D30004FF0804000F0CEF80020ADF80A00ADF86A
:102D4000060049F63F40ADF8080041F61F40ADF8D7
:102D5000040000208DF80C0001A94FF0804000F025
:102D60001BF901221146900700F0ABF801218807FA
:102D700000F084F84FF48060FEF7A4FF1C208DF86B
:102D8000000001208DF8030006208DF801000020CE
:102D90008DF802006846FEF75DFF0121880700F00C
:102DA00073F81FBD10B50121880700F079F80128DC
:102DB00001D1034908700121880700F062F810BDB5
:102DC0001D00002010B500220121024800F079F812
:102DD00010BD0000000800401FB501210420FFF7CE
:102DE00019FD1C4800F076F80020ADF80A00ADF897
:102DF000060042F20F70ADF8080041F61F40ADF832
:102E0000040000208DF80C0001A9124800F0C4F85D
:102E1000012211460F4800F054F801210D4800F03E
:102E20002DF84FF48060FEF74DFF1E208DF8000056
:102E300001208DF8030005208DF8010000208DF899
:102E400002006846FEF706FF0121024800F01CF868
:102E50001FBD00000008004010B50121054800F02A
:102E60001FF8012801D1044908700121014800F030
:102E700008F810BD000800401E000020CA4302826E
:102E80007047CA430282704721B1028842F00102B2
:102E9000028004E002884FF6FE731A4002807047F9
:102EA00030B50246002000230024158A05EA0103FC
:102EB000958905EA010413B10CB1012000E000205E
:102EC00030BD1AB183890B43838102E083898B4330
:102ED0008381704701894FF6F87211400181704774
:102EE00070B5002400220023058C4FF6FF663540A4
:102EF0000584028C8388848B4FF68F752C404FF6A7
:102F0000FC752C400D882C434FF6FF552A400D8947
:102F10004FF6FF7606EA05252A434D8806EA052581
:102F20002A43154DA84202D0144DA8421DD14FF29C
:102F3000FF752A404D894FF6FF7606EA05252A439C
:102F40004FF6FF352A408D8806EA05252A434EF6BE
:102F5000FF752B404DF6FF752B408D8906EA051550
:102F60002B43CD8906EA05152B4383808483CD88C6
:102F70008587028470BD0000002C014000340140B0
:102F80000021018041808180C18001814181818156
:102F9000C181704781877047002202881D4B98428B
:102FA0000ED01D4B98420BD0B0F1804F08D01B4B78
:102FB000984205D01A4B984202D01A4B984204D13D
:102FC0004FF68F731A404B881A43174B984207D01D
:102FD000164B984204D04FF6FF431A40CB881A4351
:102FE00002808B8883850B8803850A4B98420BD01F
:102FF000094B984208D00E4B984205D00D4B984291
:1030000002D00D4B984201D10B7A038601238382B3
:1030100070470000002C01400034014000040040D3
:1030200000080040000C0040001000400014004068
:1030300000400140004401400048014010B51D48D7
:103040000078012816D11C48007898B91B480069FF
:103050001B49098888420DD9002016490870FEF7DF
:103060003BFD2820FDF7FDFF4FF0814215A1002018
:10307000FEF7BCF80F480078012816D10E480078FA
:10308000012812D10D4800691049098888420CD2E4
:10309000002008490870FEF765FC2820FDF7E1FFD5
:1030A0000B4A08A10020FEF7A1F801200149087091
:1030B00010BD00002E00002030000020D8000020AD
:1030C000260000204C6F6754616700002800002034
:1030D0000000A04010B50F480078012816D10E4816
:1030E000007898B90D48C0680D49097888420DD913
:1030F000002008490870FEF7EFFC2820FDF7B1FF1B
:103100004FF0804207A10020FEF770F8012001492E
:10311000087010BD2E00002030000020D8000020D4
:103120002A0000204C6F67546167000010B51048FA
:103130000078012817D10F480078012813D10E48D4
:10314000C0880E49098888420DDA002008490870B5
:10315000FEF708FC2820FDF784FF4FF07E5208A1FF
:103160000020FEF743F801200149087010BD00005F
:103170002E00002030000020A20000202C000020A3
:103180004C6F67546167000010B512480078012841
:103190001BD111480078012817D110480078FDF79D
:1031A0006AFA04460E4881682046FDF70BFB0CD2F4
:1031B000002008490870FEF7D5FB2820FDF751FFD5
:1031C000084A09A10020FEF711F801200149087002
:1031D00010BD00002E000020300000202400002040
:1031E000D8000020000040404C6F67546167000029
:1031F0002DE9F04186B040F22551494800F0D1F860
:1032000001287DD1464800F087F9C2B245480168DF
:103210000068401C434B18604348425418460068FD
:10322000801E4149085C0D2801D1012000E00020EA
:103230003C490968491E3C4A515C0A2901D10121D7
:1032400000E00021084340B1002136480068801E9C
:10325000354A115400203349086034A13248FCF744
:1032600075FF10B101203349087033A12E48FCF7D7
:103270006DFF10B101203249087032A12A48FCF7D5
:1032800065FF002849D00024002500BF2DA1264855
:1032900000F06CFE044605E02348005D2B494855CC
:1032A000641C6D1C142DF7DB0020284948550024B0
:1032B00004E02648005D26490855641C0A2CF8DB0A
:1032C00000202349487200250A2405E01F48005DBC
:1032D00002A94855641C6D1C0E2DF7DB00208DF8EB
:1032E00016001CA102A8FCF74BFF074619A10020FD
:1032F000FCF746FF804618A10020FCF741FF00E0E4
:103300000BE0064643463A4614A11848009600F0E2
:103310001FF900201549087200BF06B0BDE8F08112
:1033200000380140340000206C0500204C45445F0B
:103330004F4E00001F0000204C45445F4F464600A2
:10334000200000203230323300000000380000201E
:10335000600000203A0000002C000000253032738D
:103360003A253032733A2530327300005100002084
:1033700021B1828942F40052828104E082894DF6B3
:10338000FF731A408281704702460020B1F5007F2A
:1033900000D100BF13880B400BB1012000E00020DA
:1033A000704770B50246002400230025002040F637
:1033B0006A16B14200D100BFC1F3421501F01F03EC
:1033C000012606FA03F3012D02D19689334006E067
:1033D000022D02D1168A334001E0968A33400C1246
:1033E000012606FA04F41688344013B10CB101200A
:1033F00000E0002070BDF0B5034600240026002543
:10340000002040F66A17B94200D100BF1846C1F348
:10341000421401F01F06012707FA06F5012C01D11D
:103420000C3004E0022C01D1103000E014301AB14D
:1034300007682F43076002E00768AF430760F0BDED
:103440002DE9F04786B005460E460024A24600BF8F
:10345000A1460027B08900B100BF2F462C8A4CF648
:10346000FF700440F08804432C82AC894EF6F310C0
:103470000440B08831890843718908430443AC8112
:10348000AC8A4FF6FF400440B0890443AC8201A8E7
:10349000FFF7E0F91F48874202D1DDF810A001E0F4
:1034A000DDF80CA0A88900F4004040B10AEBCA0086
:1034B00000EB0A1031684900B0FBF1F807E00AEBB5
:1034C000CA0000EB0A1031688900B0FBF1F86420F3
:1034D000B8FBF0F004012009642101FB1089A889E0
:1034E00000F4004040B1322000EBC900B0FBF1F025
:1034F00000F00700044308E0322000EB09106421CB
:10350000B0FBF1F000F00F0004432C8106B0BDE8E1
:10351000F08700000038014001468888C0F30800A9
:103520007047C1F308028280704700BFFEE70000C9
:103530000FB4054B10B503A9044A029800F07EF9B8
:1035400010BC5DF814FB0000813F0008D000002093
:103550000FB4084B10B504A902AA039800F06EF945
:10356000044602A9002000F0ECFC204610BC5DF8E7
:1035700014FB0000433F0008490050EAC12018BF77
:1035800004204A0D18BF40F0010040F2FF72B2EB78
:10359000515F08BF40F00200012808BF05207047B6
:1035A0002DE9F0414F1E00EBC7010446D1E90001AF
:1035B00015461E4637F006020DD02A463346FCF764
:1035C00070FF7F1E04EBC703D3E90023FCF7C2FEA4
:1035D00037F00602F1D1022F25D0042F13D0062F89
:1035E00018BFBDE8F0812A463346FCF75AFFD4E9FC
:1035F0000A23FCF7AFFE2A463346FCF752FFD4E914
:103600000823FCF7A7FE2A463346FCF74AFFD4E915
:103610000623FCF79FFE2A463346FCF742FFD4E917
:103620000423FCF797FE2A463346FCF73AFFD4E919
:103630000223FCF78FFE2A463346FCF732FFD4E91B
:103640000023BDE8F041FCF785BE000000221346D0
:1036500010460149FCF797BF0000F03FFCF77ABE27
:103660000022134610461146FCF78DBF40F201328E
:1036700000204FF0E041FDF7BBB90000024A0020F6
:103680001107FDF7B5B9000001FDFFFF02E008C812
:10369000121F08C1002AFAD170477047002001E0CC
:1036A00001C1121F002AFBD17047000001490860C8
:1036B00070470000D40000202DE9FF5F82B0002198
:1036C000DDE90430020DDDF840B0034318D044F6C4
:1036D0001050A2F2FF3242431514119801281FD056
:1036E000A5EB0B00401C5FEA000A4FF000064E4FAE
:1036F000DFF83891B046504615D5CAF1000413E002
:10370000119801244AA3012801D16FEA0B01029804
:10371000119AC0E90031C0E9024206B0BDE8F09F4D
:10372000CBF10000DFE704460021404A491842EB94
:103730000450CDE9001012E0E00707D032463B46C6
:1037400040464946FCF7ADFE8046894632463B4638
:1037500010461946FCF7A5FE06460F466410002CDD
:10376000EAD1DDE90401DDE90023BAF1000F06DA50
:10377000FCF797FE42464B46FCF793FE05E0FCF74C
:1037800002FF42464B46FCF7FEFE04460E46002270
:10379000284BFDF76DF903D84FF0FF30014607E0E5
:1037A0000022254B20463146FCF7D4FDFDF748F9B1
:1037B000102409E0002C0ADB0A220023FDF722F87E
:1037C000039B30321A55641E50EA0102F2D1641C88
:1037D000039AC4F111031444119A012A03D001225F
:1037E00008430DD10AE0084304D000204FF0110B2C
:1037F000119072E7A3EB0B056D1E0DE05B4504DD38
:103800004FF0000205F1010504E003DA4FF0000279
:10381000A5F10105002AECD002981199C0E9023106
:10382000C0E9004579E70000000014400000F03FC7
:10383000300000000000F0430000E03F2DE9FF4FA2
:1038400095B09A46884606460025EEE1252877D1B0
:1038500000242746F94A0121039400E0044316F8A6
:10386000013F203B01FA03F01042F7D130782A28BB
:1038700011D06FF02F033078A0F13002092A16D84A
:10388000039A44F0020402EB820203EB420210446A
:10389000761C0390EFE758F8042B0392002A03DA12
:1038A000504244F40054039044F00204761C3078F3
:1038B0002E2816D116F8010F44F004042A280DD042
:1038C0006FF02F023078A0F13003092B09D807EBF5
:1038D000870302EB4303C718761CF3E758F8047B11
:1038E000761C30786C280FD006DC4C2817D068285E
:1038F0000DD06A2814D104E0742810D07A280FD192
:103900000DE044F400140AE044F4801401E044F4AF
:1039100040147278824202D104F58014761C761C21
:10392000307866280BD013DC582877D009DC0028C3
:1039300075D04528F6D04628F4D047281AD193E10F
:1039400018E0632835D0642879D0652812D18BE13E
:10395000702873D008DC6728F1D069286FD06E28F2
:103960000DD06F2806D1ACE073282CD0752874D008
:10397000782853D05246179990476D1C54E1C4F3F0
:103980000250022809D003280DD0D8F800100428CE
:103990000DD00D6008F1040846E1D8F80010EA17D0
:1039A000C1E90052F6E7D8F800100D80F2E70D707B
:1039B000F0E718F8041B8DF8001000208DF80100C6
:1039C000EB46012003E058F804BB4FF0FF306107DD
:1039D0004FF0000102D40DE009F101018946B9421E
:1039E0000FDA8145F8DB1BF809100029F4D108E053
:1039F00009F1010189468142FADB1BF8091000290F
:103A0000F6D103985346A0EB090721463846179A8A
:103A100000F080FA284400EB090507E044E008E1E3
:103A20000DE01BF8010B524617999047B9F10109B7
:103A3000F7D2534621463846179AF2E039E00A2178
:103A4000C4F302524FF0000B0091022A06D058F83E
:103A5000040BC117032A09D00AE023E008F107008C
:103A600020F00702F2E80201904605E000B2C1171B
:103A7000042A01D140B2C117002906DA0A46002102
:103A8000404261EB02012D2202E0220504D52B22E7
:103A90008DF80420012203E0E20701D02022F7E79D
:103AA000914657E00A2100E010214FF0000B0091F1
:103AB0000BE010214FF0000B44F0040408270091A4
:103AC00003E008204FF0000B0090C4F30252022ADA
:103AD00005D058F8040B0021032A08D008E008F1AB
:103AE000070020F00702F2E80201904603E080B2EE
:103AF000042A00D1C0B24FF0000922072AD532783B
:103B0000702A07D0DDF800C08CF0100C5CEA0B0CBA
:103B100005D00EE040228DF80420012208E050EA92
:103B2000010306D030238DF804308DF805200222E1
:103B30009146009B83F0080353EA0B030AD150EA35
:103B4000010201D1620705D530228DF804204FF023
:103B500001097F1E3278582A04D039A20C920CAA8F
:103B600002920BE03BA2F9E75B46009AFCF74AFEA3
:103B70000C9B9B5C029A521E0292137050EA010247
:103B8000F2D1029804A9081A00F1200B600702D5AF
:103B900024F4803400E001275F4502DDA7EB0B0031
:103BA00000E0002000EB0B01009003984944401A0C
:103BB0000390E00306D453462146179A039800F079
:103BC000A9F90544002706E001A85246C05D1799EF
:103BD00090476D1C7F1C4F45F6DBE0030CD5534628
:103BE0002146179A039800F095F9054404E0302027
:103BF0005246179990476D1C0099481E0090002965
:103C0000F5DC08E00298029952460078491C0291BE
:103C1000179990476D1CBBF10001ABF1010BF1DC72
:103C20005BE100F065F90544761C307800287FF4EC
:103C30000DAE19B02846BDE8F08F0000092801003C
:103C40003031323334353637383961626364656612
:103C500000000000303132333435363738394142D4
:103C60004344454600000000600700D4062708F1E1
:103C7000070020F00700F0E80223804603F0004C24
:103C80005FEA0C0001D097A009E0200501D596A0BD
:103C900005E0E00701D095A001E0AFF24C001390E1
:103CA000307823F0004365280CD006DC452809D085
:103CB00046281DD047287FD13BE0662818D06728CA
:103CC0007AD136E00021112F01DB112000E0781CB1
:103CD000CDE9000104A90CA8FFF7EEFCDDE90D0118
:103CE0000C9A4FF0000B07F10109109200914EE081
:103CF0004FF000400097CDE9011004A90CA8FFF790
:103D0000DBFCDDE90D020C9B0F994FF0000B914697
:103D10001093009211B9791C00EB0109B7EB09006F
:103D200003D4C0F1FF3B07F10109A9EB07000190A3
:103D300042E0012F00DA01270021112F01DD1120BF
:103D400000E03846CDE9000104A90CA8FFF7B4FC57
:103D5000DDE90D010C9A00914FF0000BB94610926D
:103D600021070FD4009A4A4503DA914601E0A9F1F0
:103D70000109B9F1010F05DD109AA9F10101515CAA
:103D80003029F4D0B84202DA10F1040F03DA01212D
:103D9000CDE9011010E0002803DC8344A9EB000109
:103DA00002E0411C494500DD8946A0EB0B00401CA8
:103DB00001904FF000400290200705D4019848453B
:103DC00002DB4FF0FF30019000208DF84B0002988D
:103DD0000DF14B07B0F1004F25D002200C902B20A5
:103DE0000D90029800280CDA404202902D200D9090
:103DF00007E00A210298FCF7EFFC3031029007F847
:103E0000011D0C99481E0C900029F2DC0298002834
:103E1000EFD1791E0D980870307800F0200040F046
:103E2000450007F8020D11A8C01BC01D0290139891
:103E3000007800B1012000EB0901019801EBE0716D
:103E4000029801440398401A401E0390E00306D4F0
:103E500053462146179A039800F05CF805441398DE
:103E6000007818B15246179990476D1CE00323D58E
:103E700053462146179A039800F04CF805441BE07E
:103E8000BBF1000F07DB0098584504DD1098179927
:103E900010F80B0001E01799302052469047019826
:103EA0000BF1010B401E05F10105019004D12E20FC
:103EB0005246179990476D1CB9F10001A9F101090B
:103EC000DEDC05E017F8010B5246179990476D1C90
:103ED0000299481E02900029F4DC53462146179AA5
:103EE00003989EE62D0000002B000000200000003B
:103EF0002DE9F041044600251E461746880404D4E7
:103F000005E039462020B0476D1C641EF9D52846CF
:103F1000BDE8F0812DE9F041044600251E4690469B
:103F2000C80301D5302700E02027880404D505E028
:103F300041463846B0476D1C641EF9D52846BDE899
:103F4000F0810A68531C0B6010707047002107E075
:103F50004FF4FA5100BF0A1EA1F1010399B2FAD140
:103F6000021EA0F1010398B2F2D1704770B5044669
:103F70000D4629462046FCF7E9F80646301B70BD81
:103F800070B504460D46E1B20548FFF7CAFA00BF16
:103F900040210348FFF7F8F90028F9D0204670BD0A
:103FA000003801401FB5FEF7F5FCFDF7F3FE0120D8
:103FB00018230222FCA100901020FEF743F8FDF721
:103FC0008BFEFEA0FFF7B4FA012018230222FEA107
:103FD00000901020FDF7BAFFFDF77EFE01201823A8
:103FE0000022102100901846FEF74EF901201823F8
:103FF0000246102100903020FEF746F901201823D8
:104000000222102100904820FEF73EF9FDF76AFFDA
:10401000FDF788F8FDF790FCFEF78AFBFCF768FED9
:10402000FEF78AFDFEF702FEFEF77DFEFEF7D4FEE8
:10403000FDF76AFBFDF770FAFDF7BEFAFDF7D8FB56
:10404000FDF74AFE9FE2E648007801280FD1FCF711
:10405000BFFE4FF47A70FFF779FF4FF07E52E1A177
:104060000020FDF7C3F80020DD49087001E0FCF7EF
:10407000A7FEDF48007801283BD1FDF78DFBDD4826
:10408000DDA142680020FDF7B1F85020FCF7E9FF00
:10409000D848DBA102680020FDF7A8F85020FCF703
:1040A000E0FFD448D8A182680020FDF79FF8502097
:1040B000FCF7D7FFCF49C868FCF7DDFA0446224673
:1040C000D4A10020FDF792F85020FCF7CAFFC9499F
:1040D0000869FCF7D0FA04462246CFA10020FDF77C
:1040E00085F85020FCF7BDFFFDF74EFB0020C049CE
:1040F0000870CA48007801287ED1C949C948FDF72F
:104100009BFB0446FCF7E2FABA49C860C64BC74AB3
:10411000C749C848FCF7CCFEC3480078FCF7B0FAA2
:104120008246C54AC54BFCF7BCF906460F46C04857
:104130000078FCF7A5FA804632463B46FCF70AF9C0
:104140000446FCF722FBAB494860B8480078FCF70E
:1041500097FA0646B84AB94BFCF7A3F982468B4654
:10416000B4480078FCF78CFA044652465B46FCF7EC
:10417000F1F88046FCF709FB9E490860B0480068EA
:104180008860002007E0AF498988AF4A128811444F
:10419000AD4A1180401C0A28F5DBAB4800880A2193
:1041A00090FBF1F0A849088008460088FCF768FAFF
:1041B0008046A64AA64BFCF774F9064632460B46E3
:1041C000A448A54900F006FA04460022A34BFCF7D8
:1041D00068F982468B469C480088FCF751FA0646EF
:1041E0009F4AA04BFCF75DF9044622460B469948CE
:1041F000994900F0EFF900E027E0804600229A4B51
:10420000FCF74FF952465B46CDE90001FCF7A2F8F6
:10421000CDE90201FCF78DFA764908610846C068CD
:10422000C82802D9FDF7DAFA01E0FDF7CDFA63A05C
:10423000FFF77EF9FEF74EFFFEF700FFFEF7A4FF43
:10424000FEF774FF0020754908708848007801283F
:104250000FD1FDF741FC0120854908702820FCF7AB
:1042600000FF844A84A10020FCF7C0FF00207F49A2
:1042700008708348007801280FD1FDF773FB0020F8
:104280007B4908702820FCF7ECFE7E4A7AA10020CA
:10429000FCF7ACFF00207A4908707B4800780128C1
:1042A00021D17348007801280DD1FDF75BFB002078
:1042B0006F4908702820FCF7D4FE724A6EA10020D6
:1042C000FCF794FF0CE0FDF707FC0120684908703B
:1042D0002820FCF7C6FE674A67A10020FCF786FF8E
:1042E00000206949087001200823684A00210090D5
:1042F0000846FEF7FCF801200823654A00210090DB
:104300004020FEF7F4F801200C2362A2082100905F
:104310000020FEF7ECF801200C2360A20821009099
:104320004020FEF7E4F833494868FCF7CFF904462B
:1043300001200C2102232246CDE9001008211E2075
:10434000FEF724F82B490868FCF7C0F90446012061
:104350000C2102232246CDE9001008215E20FEF741
:1043600015F801204F4908231A46CDE900100A210B
:104370003020FEF751F801200C234BA208210090B9
:104380006E20FEF7B4F801200C2348A214210090FF
:104390000020FEF7ACF801200C2346A21421009067
:1043A0004020FEF7A4F887E0436F6E6E6563746982
:1043B0006E672057692D46690000000041542B4E5E
:1043C00054500D0A0000000047657474696E672040
:1043D00054696D652046726F6D2053657665720075
:1043E000BC000020427265616B54696D657300000A
:1043F0001D000020D800002054656D7000000000F2
:1044000048756D690000000057696E6453706565FA
:104410006400000050504D004C7578001E000020D4
:1044200042609DC000B2BD47A00000209F00002058
:104430009E0000209D0000209A9999999999B93F72
:10444000C8000020A200002022000020D2544FE625
:104450001F7D63BF90F7AA9509BF05400016AB40CA
:10446000B4AB90F2936A8FBF4070E3401F0000200E
:10447000300000200000E0404C6F6754616700008E
:10448000200000200000C04021000020600000202B
:104490005100002054656D703A00000048756D6948
:1044A0003A000000150000202500000057696E64E6
:1044B0003A0000006D2F730001200C21CDE900109F
:1044C00031480123142182681E20FEF735F80120AF
:1044D00008232EA2222100906220FEF708F82D4822
:1044E0000078012807D108232BA22E2100906220FA
:1044F000FDF7FDFF07E00120082329A22E210090EF
:104500006220FDF7F4FF01200C2327A22021009058
:104510000020FDF7ECFF01200C2325A220210090B4
:104520004020FDF7E4FF01200C21CDE900101648E2
:1045300004232021C2681E20FDF728FF01200C2340
:104540001DA22C2100900020FDF7D1FF01200C239B
:104550001BA22C2100904020FDF7C9FF01200C2157
:10456000CDE90010084804232C2102691E20FDF724
:104570000DFF0120082313A2382100900020FDF731
:10458000B6FFFDF7AFFC5EE5D80000205374617400
:1045900065000000300000204F70656E00000000D4
:1045A000436C6F736500000050504D203A000000CE
:1045B0006D672F4C000000004C7578203A00000019
:1045C0006C78000042792E32303139353232393050
:1045D000323033002DE9F04D1D460C4698B0174699
:1045E00021F0004123F00043002814BF4FF0010CDC
:1045F0004FF0000C0CEB440CFE4A0CEB02064FEAA9
:10460000620C66452BD33E0018BF012606EB45061B
:104610001644F94A964222D3F84A53EA070C02D0CC
:10462000944205D148B918B000201146BDE8F08D7C
:10463000002808BF4FF0000C01D04FF0010C0CEB2C
:10464000440212F5001F0AD8002F14BF4FF0010CCE
:104650004FF0000C0CEB450212F5001F07D918B003
:104660003A462B462146BDE8F04DFEF7F7BF002243
:10467000DFF88CA3002CB8BF534526DADFF884C3DB
:104680006345A8BF022220DADFF870C39C451CDC1A
:10469000DFF874C30CEB235CBCF1140F08DDCCF124
:1046A000340627FA06FC0CFA06F6BE420DD108E0E5
:1046B0005FB9CCF1140623FA06FC0CFA06F69E420A
:1046C00003D10CF00102C2F1020251EA000C19D12F
:1046D000002D17DA002C18BF022A01D0012A07D0BA
:1046E0000220FEF7E3FF18B0BDE8F04DFEF7AEBFC5
:1046F0000220FEF7DBFFFEF7A9FF18B081F00041B2
:10470000BDE8F08DB7F1000C6CD1534525D104F113
:10471000804212F5801201BF00280020B74918B06E
:1047200008BFBDE8F08DB548884207DC002DA1BF69
:104730006046294618B0BDE8F08D07E0281E05DA6E
:1047400080F0004118B06046BDE8F08DAF49794473
:10475000D1E9000118B0BDE8F08DDFF8A0C26345D3
:1047600025D1002D1FDA19B1514512D1D8B909E070
:10477000002840F0EC82A24A214618B062F31E01E4
:10478000BDE8F08D0020214618B060F31E01BDE8A1
:10479000F08D08DA18B02346BDE8F04D024600203F
:1047A0006146FBF7F0BE18B02146BDE8F08D5145DB
:1047B00018DAB5F1804F0DD0A5F1005CBCF1FF5CBB
:1047C00010D1B4F1000C0DDB18B06146BDE8F04D1E
:1047D00000F0ECBB234618B00246BDE8F04D194688
:1047E000FBF75FBE060024F0004C3BD1D9B1514528
:1047F00033D1002C06DD002DA1BF0020514618B09A
:10480000BDE8F08D002C01DD002D1BDB002C13DA40
:10481000002D11DB012A4FF0000014BF78497C49BC
:1048200018B0BDE8F08D022A18BF002C0AD0012A6A
:1048300008D1002C06DA0AE0002CB8BF002D11DAEE
:10484000012A04D0002018B00146BDE8F08D18B050
:1048500000204FF00041BDE8F08DA1F14050B0F1D3
:104860007F601AD0012000EBE47050EA020421D0EE
:10487000624C521E4FF0000B104304BF4FF0000B70
:10488000644C654883427CDD644A654893421FDD81
:10489000884217DB002D25DB37E0002C00DA4AB117
:1048A000022A0CBF01204FF0FF3018B0BDE8F04DD8
:1048B000FCF7B5B80120FEF7F9FE18B0BDE8F04DE1
:1048C000FEF7CEBE4D4A8A4202DC002D0ADC1CE017
:1048D000814202DA002D18DA04E0484B994220DDCB
:1048E000002D12DD0220FEF7E1FEFEF7BFFE0546B9
:1048F0000E460022534658462146FBF7D2FD18B01B
:1049000066F31E012846BDE8F08D0220FEF7CEFEBC
:10491000FEF7B4FE0A46214618B062F31E01BDE858
:10492000F08D002230466146FBF7B5FD80460E460D
:104930006FF00102FCF75CF84FF05532394BFBF792
:10494000ADFD42463346FBF7ACFD0022364BFBF78C
:10495000A5FD824642463346049110461946FBF7B0
:10496000A0FD5246049BFBF79CFD8A4600904FF049
:10497000C0422E4B40463146FBF793FD2C4A2B4B51
:1049800000E027E0CDE9060151460098FBF789FDDC
:1049900082460191274A284B40463146FBF781FD6C
:1049A0005246019BFBF777FD82460B460246059176
:1049B000DDE90601FBF7CEFCDDE90623002688468B
:1049C0003046FBF768FD5246059BFBF767FD024644
:1049D00000F07EB90020B1F5801F07DA352230469D
:1049E0006146FCF705F806466FF0340000EB2150F5
:1049F00024E00000FFFF1F00FFFF0F000000F03F5A
:104A00000000F07F0000404301FCFFFFBE250000D6
:104A10000000F0FF0000F0BF0000E0410000F043A4
:104A2000FFFFEF3F5555D53F0000E03F4715F73FEB
:104A3000FE822B6544DF5DF80BAE543EA0F2FF30E2
:104A40000190C1F3130040F07F6141F040510291A9
:104A5000FE498842D8BF002004DDFD498142C8BF1D
:104A6000012001DD0D9008E000200D900198401C10
:104A700001900298A0F5801002900299F5487844C0
:104A80000B910D9900EBC100D0E900230F93304644
:104A90000A920B99FBF7FFFCCDE90601DDE90A213B
:104AA00030460F9BFBF756FC02460B460020EA49B6
:104AB000FBF769FD059102460B460090DDE9060112
:104AC000FBF7EFFC1490E5488A464FF00008784465
:104AD0000299006812904FF0005040EA61010D9871
:104AE0000F9B01EB804000F5002109910A9A129872
:104AF000FBF7D1FC32460B9BFBF7D0FC42465346FA
:104B0000FBF7CFFC0646029140465146099B129A9C
:104B1000FBF7C7FCDDE90623FBF7C0FC3246029B2E
:104B2000FBF7B9FC059B009AFBF7BBFC0091149ABC
:104B30000490534610461946FBF7B3FC064602465E
:104B4000C7480B46029106217844FEF729FDCDE9BE
:104B50000510029B324610461946FBF7A2FCDDE920
:104B60000532FBF79EFC0591064653464046194622
:104B7000149AFBF7EFFB009B049AFBF792FC32467A
:104B8000059BFBF7E7FBCDE905104246534610466F
:104B90001946FBF786FC0022B24B02910A90FBF704
:104BA000D9FBDDE90532FBF7D5FB0E464246AD4B9E
:104BB0004046FBF770FC029B0A9AFBF76CFCDDE9B0
:104BC0000532FBF76BFC424602910A9033461046D1
:104BD0005146FBF766FCCDE906015346149A02994B
:104BE0000A98FBF75EFC8A460290334642460099DB
:104BF0000498FBF756FC5346029AFBF7ABFB824640
:104C00000B4602460591DDE90601FBF7A3FBDDE952
:104C10000623002088460646FBF73DFC5246059BCE
:104C2000FBF73CFC824609914FF060428E4B3046C8
:104C30004146FBF736FC049006918C4A8A4B50465D
:104C40000999FBF72EFC82460291894A894B30462E
:104C50004146FBF726FC5246029BFBF77BFB864B4B
:104C60007B440D9A03EBC203D3E90023FBF772FBED
:104C70000E9007910198FBF7D2FE0591DDE906132E
:104C800082460E9A0498FBF765FB7C4A7A440D9B9A
:104C900002EBC303D3E9002300930292FBF75AFB14
:104CA0005246059BFBF756FB002688465246304687
:104CB000059BFBF7F0FB009B029AFBF7ECFB069BC6
:104CC000049AFBF7E8FB079B0E9AFBF7E7FB02460B
:104CD00000200B46029038462946FBF7E2FB82464D
:104CE00001912B4638461946029AFBF7D4FB32460F
:104CF0004346FBF7D6FB5246019BFBF72BFB0746CF
:104D00008A463246434629460298FBF7CAFB0546C7
:104D10000E463A465346FBF71DFB594A88469142D8
:104D200021DBA8EB020353EA000210D12A463346E6
:104D3000FBF7B1FBCDE90401524A534B38465146CB
:104D4000FBF708FBDDE90423FBF792FE21D20220EA
:104D5000FEF7ACFCFEF78AFC0A46214618B062F367
:104D60001E01BDE8F08D494B28F000429A4210D355
:104D7000474A08EB020353EA00027FF4C6AD2A4615
:104D80003346FBF788FB3A465346FBF771FE7FF646
:104D9000BCAD0022019228F000403E493E4A01EBA2
:104DA0002051824223DA481C4FF4801121FA00F08E
:104DB00040443A4AC0F30A517A44394BA1F2FF31D8
:104DC000CB4020EA0303C0F3130040F48010C1F18C
:104DD0001401C84012680190B8F1000FBCBF4042F6
:104DE000019028463146FBF756FB05460E462A46FB
:104DF000334638465146FBF7ADFA4FF000084246BD
:104E0000284B40460591FBF74CFBCDE90601264AAD
:104E1000264B40460599FBF744FB009102902A4639
:104E2000334640460599FBF736FB3A465346FBF7B7
:104E300035FB1F4A1F4BFBF734FB009B029AFBF725
:104E400089FA0746884602460B4635E08E980300ED
:104E50007AB60B00062200000000F03F3E22000060
:104E60006C2100000000084009C7EE3FFD033ADC5A
:104E7000F5015B14E02F3EBE442000000820000036
:104E800000009040FE822B654715973C00CC904077
:104E900000346F3F01FCFFFF0000E03F541F0000A3
:104EA000FFFF0F00432EE63F396CA80C615C20BE6B
:104EB000EF39FAFE422EE63FDDE90601FBF74AFA3A
:104EC000DDE9062305460E46FBF7E5FA3A4643467A
:104ED000FBF7E4FA0F462A4633460090104619467F
:104EE000FBF7DFFA824602462E4888460B4605212C
:104EF0007844FEF755FB52464346FBF7D2FA2A4662
:104F00003346FBF7CBFA80468A463B462846314675
:104F1000009AFBF7C6FA3B46009AFBF71BFA06918C
:104F2000009000224FF0804340465146FBF7B3FA11
:104F30000F460C904246534628463146FBF7B1FADD
:104F40003B460C9AFBF71FFB069B009AFBF7A3FA64
:104F50002A463346FBF79FFA0022134BFBF79EFAD3
:104F6000054601980E4601EB00510815002810DC9B
:104F700028463146019AFBF73BFDFEF7FDFA04286F
:104F800008BFFEF77BFB28463146019AFBF730FD50
:104F900005460B4618B02A4658462146BDE8F04D56
:104FA000FBF77FBAF41D00000000F03F2DE9F0414F
:104FB00006460F46FBF786FD041E0D4618BF01206E
:104FC000284320F00040C0F17F6000F1E040C00FB6
:104FD0000ED0301C18BF0120384320F00040C0F133
:104FE0007F6000F1E040C00F04BF0120FEF75EFBD0
:104FF00020462946BDE8F0810000000000000000C6
:10500000002F000000000700070000147F147F1429
:1050100000242A7F2A1200626408132300364955AF
:10502000225000000503000000001C224100000087
:1050300041221C000014083E08140008083E08081D
:10504000000000A060000008080808080000606078
:105050000000002010080402003E5149453E0000B7
:10506000427F4000004261514946002141454B3199
:10507000001814127F10002745454539003C4A4965
:1050800049300001710905030036494949360006D7
:105090004949291E0000363600000000563600003F
:1050A00000081422410000141414141400004122BA
:1050B000140800020151090600324959513E007C92
:1050C0001211127C007F49494936003E414141227C
:1050D000007F4141221C007F49494941007F090965
:1050E0000901003E4149497A007F0808087F000015
:1050F000417F4100002040413F01007F08142241D0
:10510000007F40404040007F020C027F007F040887
:10511000107F003E4141413E007F09090906003EE3
:105120004151215E007F091929460046494949310C
:105130000001017F0101003F4040403F001F20402F
:10514000201F003F4038403F0063140814630007ED
:105150000870080700615149454300007F41410044
:1051600000552A552A55000041417F0000040201E4
:1051700002040040404040400000010204000020C2
:1051800054545478007F4844443800384444442000
:1051900000384444487F00385454541800087E09AD
:1051A00001020018A4A4A47C007F08040478000075
:1051B000447D4000004080847D00007F1028440032
:1051C0000000417F4000007C04180478007C080443
:1051D000047800384444443800FC2424241800187F
:1051E000242418FC007C080404080048545454206B
:1051F00000043F444020003C4040207C001C2040F4
:10520000201C003C4030403C004428102844001C36
:10521000A0A0A07C004464544C441414141414142E
:105220000000000000000000000000000000FC0082
:105230000000000002000000000C020C0200000050
:105240000000000090D0BCD0BC9000030003000020
:105250001824FE448C000302070201001824D8B071
:105260004C80000300010201C038E438E000010274
:105270000201020208060000000000000000000019
:10528000000000F80402000000010204000204F81B
:1052900000000004020100009060F860900000002F
:1052A000010000002020FC20200000000100000080
:1052B0000000000000000806000000002020202060
:1052C00020000000000000000000000000000002BC
:1052D000000000000080601C0200040300000000C9
:1052E000F8040404F8000102020201000008FC00B6
:1052F0000000000203020000188444241800030286
:105300000202020008042424D80001020202010063
:1053100040B088FC80000000000302003C242424EC
:10532000C400010202020100F824242CC000010282
:10533000020201000C04E41C040000000300000051
:10534000D8242424D8000102020201003844444435
:10535000F80000030202010000001000000000003D
:105360000200000000002000000000000600000015
:1053700000205088040200000000010290909090EC
:10538000900000000000000000020488502000028D
:10539000010000001804C4241800000002000000EE
:1053A000F804E494F80001020202020000E09CF01C
:1053B000800002030000030204FC2424D80002033E
:1053C00002020100F80404040C00010202020100C0
:1053D00004FC0404F80002030202010004FC24742B
:1053E0000C0002030202030004FC24740C000203FC
:1053F00002000000F0080444CC4000010202010059
:1054000004FC2020FC040203000003020404FC044A
:105410000400020203020200000404FC0404060467
:105420000403000004FC24D00C0402030200030265
:1054300004FC04000000020302020203FC3CC03C26
:10544000FC0003000300030004FC30C4FC0402035E
:1054500002000300F8040404F80001020202010043
:1054600004FC24241800020302000000F8848404D1
:10547000F80001020207050004FC246498000203FE
:1054800002000302182424448C00030202020100DB
:105490000C04FC040C0000020302000004FC0000E9
:1054A000FC04000102020100047C80E01C040000F6
:1054B000030000001CE03CE01C00000300030000AF
:1054C000049C609C0400020300030200041CE01C16
:1054D00004000002030200000C84641C04000203A8
:1054E000020203000000FE020200000007040400A4
:1054F000000E30C00000000000010200000202FEA9
:105500000000000404070000000402040000000082
:10551000000000000000000000000808080808085B
:105520000000020000000000000000000040A0A0F9
:10553000C00000010202030204FC2020C00000039E
:105540000202010000C020206000000102020200EF
:1055500000C02024FC0000010202030200C0A0A041
:10556000C0000001020202000020F824240400020E
:10557000030202000040A0A0602000070A0A0A04FB
:1055800004FC2020C0000203020003020020E4000B
:105590000000000203020000000020E400000808F0
:1055A0000807000004FC80E0202002030200030240
:1055B0000404FC000000020203020200E020E020DC
:1055C000C00003000300030020E02020C00002030D
:1055D0000200030200C02020C000000102020100FE
:1055E00020E02020C000080F0A02010000C0202097
:1055F000E0000001020A0F0820E040202000020322
:10560000020000000060A0A02000000202020300CF
:105610000020F820000000000102020020E000202D
:10562000E00000010202030220E020806020000070
:10563000030100006080E0806000000300030000C0
:1056400020608060200002030003020020E0208030
:1056500060200808070100000020A0602000000270
:1056600003020200000020DE020000000007040028
:10567000000000FF00000000000F00000002DE201C
:105680000000000407000000020102040402000000
:10569000000000000000000000000000000000000A
:1056A00000000000000000F80000000000000033CF
:1056B0003000000000100C06100C06000000000076
:1056C0000000000040C07840C0784000043F04045F
:1056D0003F040400007088FC08300000001820FF20
:1056E000211E0000F008F000E018000000211C035B
:1056F0001E211E0000F00888700000001E212324D7
:105700001927211010160E000000000000000000F4
:1057100000000000000000E0180402000000000784
:105720001820400000020418E0000000004020188B
:1057300007000000404080F0804040000202010F5E
:1057400001020200000000F0000000000101011F42
:1057500001010100000000000000000080B07000A6
:105760000000000000000000000000000001010136
:1057700001010101000000000000000000303000C5
:10578000000000000000000080601804006018069F
:105790000100000000E010080810E000000F1020D9
:1057A00020100F00001010F8000000000020203F23
:1057B00020200000007008080888700000302824AD
:1057C000222130000030088888483000001820204E
:1057D00020110E000000C02010F800000007042473
:1057E000243F240000F808888808080000192120B8
:1057F00020110E0000E0108888180000000F112012
:1058000020110E0000380808C83808000000003FCA
:10581000000000000070880808887000001C222129
:1058200021221C0000E010080810E00000003122D6
:1058300022110F00000000C0C00000000000003076
:1058400030000000000000800000000000008060C8
:105850000000000000008040201008000001020449
:105860000810200040404040404040000404040430
:1058700004040400000810204080000000201008EC
:1058800004020100007048080808F0000000003021
:1058900036010000C030C828E810E00007182724AF
:1058A00023140B000000C038E0000000203C23025D
:1058B0000227382008F8888888700000203F2020C0
:1058C00020110E00C03008080808380007182020F2
:1058D0002010080008F808080810E000203F2020E9
:1058E00020100F0008F88888E8081000203F2020CA
:1058F0002320180008F88888E8081000203F2000BE
:1059000003000000C03008080838000007182020F5
:10591000221E020008F808000008F808203F2101B4
:1059200001213F20000808F8080800000020203F5F
:105930002020000000000808F8080800C0808080CF
:105940007F00000008F888C028180800203F2001C8
:105950002638200008F8080000000000203F202022
:105960002020300008F8F800F8F80800203F003F39
:10597000003F200008F830C00008F808203F200051
:1059800007183F00E01008080810E0000F10202062
:1059900020100F0008F808080808F000203F210137
:1059A00001010000E01008080810E0000F1824248E
:1059B00038504F0008F8888888887000203F200001
:1059C000030C3020007088080808380000382021B7
:1059D00021221C00180808F8080818000000203FC1
:1059E0002000000008F808000008F808001F202028
:1059F00020201F000878880000C8380800000738F9
:105A00000E010000F80800F80008F800033C070049
:105A1000073C0300081868808068180820302C03B1
:105A2000032C30200838C800C83808000000203F88
:105A30002000000010080808C83808002038262177
:105A400020201800000000FE020202000000007F7B
:105A500040404000000C30C0000000000000000189
:105A60000638C00000020202FE0000000040404074
:105A70007F00000000000402020204000000000099
:105A80000000000000000000000000008080808016
:105A900080808080000202040000000000000000FE
:105AA0000000000000008080808000000019242297
:105AB00022223F2008F8008080000000003F1120D3
:105AC00020110E000000008080800000000E1120D8
:105AD00020201100000000808088F800000E1120B6
